{
  "contractName": "Cert",
  "abi": [
    {
      "inputs": [],
      "stateMutability": "nonpayable",
      "type": "constructor"
    },
    {
      "anonymous": false,
      "inputs": [
        {
          "indexed": false,
          "internalType": "string",
          "name": "course",
          "type": "string"
        },
        {
          "indexed": true,
          "internalType": "uint256",
          "name": "id",
          "type": "uint256"
        },
        {
          "indexed": false,
          "internalType": "string",
          "name": "grade",
          "type": "string"
        }
      ],
      "name": "Issued",
      "type": "event"
    },
    {
      "inputs": [
        {
          "internalType": "uint256",
          "name": "",
          "type": "uint256"
        }
      ],
      "name": "Certificates",
      "outputs": [
        {
          "internalType": "string",
          "name": "name",
          "type": "string"
        },
        {
          "internalType": "string",
          "name": "course",
          "type": "string"
        },
        {
          "internalType": "string",
          "name": "grade",
          "type": "string"
        },
        {
          "internalType": "string",
          "name": "date",
          "type": "string"
        },
        {
          "internalType": "bool",
          "name": "exists",
          "type": "bool"
        }
      ],
      "stateMutability": "view",
      "type": "function",
      "constant": true
    },
    {
      "inputs": [
        {
          "internalType": "uint256",
          "name": "_id",
          "type": "uint256"
        },
        {
          "internalType": "string",
          "name": "_name",
          "type": "string"
        },
        {
          "internalType": "string",
          "name": "_course",
          "type": "string"
        },
        {
          "internalType": "string",
          "name": "_grade",
          "type": "string"
        },
        {
          "internalType": "string",
          "name": "_date",
          "type": "string"
        }
      ],
      "name": "issue",
      "outputs": [],
      "stateMutability": "nonpayable",
      "type": "function"
    },
    {
      "inputs": [
        {
          "internalType": "uint256",
          "name": "_id",
          "type": "uint256"
        }
      ],
      "name": "certificateExists",
      "outputs": [
        {
          "internalType": "bool",
          "name": "",
          "type": "bool"
        }
      ],
      "stateMutability": "view",
      "type": "function",
      "constant": true
    }
  ],
  "bytecode": "0x608060405234801561001057600080fd5b50600080546001600160a01b03191633179055610964806100326000396000f3fe608060405234801561001057600080fd5b50600436106100415760003560e01c806365f8d239146100465780639622c83614610081578063d1e7be26146100a5575b600080fd5b61006c61005436600461059c565b60009081526001602052604090206004015460ff1690565b60405190151581526020015b60405180910390f35b61009461008f36600461059c565b6100ba565b6040516100789594939291906105fb565b6100b86100b3366004610700565b61030b565b005b6001602052600090815260409020805481906100d5906107b7565b80601f0160208091040260200160405190810160405280929190818152602001828054610101906107b7565b801561014e5780601f106101235761010080835404028352916020019161014e565b820191906000526020600020905b81548152906001019060200180831161013157829003601f168201915b505050505090806001018054610163906107b7565b80601f016020809104026020016040519081016040528092919081815260200182805461018f906107b7565b80156101dc5780601f106101b1576101008083540402835291602001916101dc565b820191906000526020600020905b8154815290600101906020018083116101bf57829003601f168201915b5050505050908060020180546101f1906107b7565b80601f016020809104026020016040519081016040528092919081815260200182805461021d906107b7565b801561026a5780601f1061023f5761010080835404028352916020019161026a565b820191906000526020600020905b81548152906001019060200180831161024d57829003601f168201915b50505050509080600301805461027f906107b7565b80601f01602080910402602001604051908101604052809291908181526020018280546102ab906107b7565b80156102f85780601f106102cd576101008083540402835291602001916102f8565b820191906000526020600020905b8154815290600101906020018083116102db57829003601f168201915b5050506004909301549192505060ff1685565b6000546001600160a01b0316331461035a5760405162461bcd60e51b815260206004820152600d60248201526c1058d8d95cdcc811195b9a5959609a1b60448201526064015b60405180910390fd5b600085116103975760405162461bcd60e51b815260206004820152600a602482015269125b9d985b1a5908125160b21b6044820152606401610351565b60008451116103df5760405162461bcd60e51b81526020600482015260146024820152734e616d652063616e6e6f7420626520656d70747960601b6044820152606401610351565b60008351116104295760405162461bcd60e51b8152602060048201526016602482015275436f757273652063616e6e6f7420626520656d70747960501b6044820152606401610351565b60008251116104725760405162461bcd60e51b815260206004820152601560248201527447726164652063616e6e6f7420626520656d70747960581b6044820152606401610351565b60008151116104ba5760405162461bcd60e51b8152602060048201526014602482015273446174652063616e6e6f7420626520656d70747960601b6044820152606401610351565b6040805160a0810182528581526020808201869052818301859052606082018490526001608083018190526000898152915291909120815181906104fe9082610840565b50602082015160018201906105139082610840565b50604082015160028201906105289082610840565b506060820151600382019061053d9082610840565b50608091909101516004909101805460ff191691151591909117905560405185907fc7fc4858662996e8fe091a9941384ab745bfc51199d7c0a5e45a791ff945993c9061058d9086908690610900565b60405180910390a25050505050565b6000602082840312156105ae57600080fd5b5035919050565b6000815180845260005b818110156105db576020818501810151868301820152016105bf565b506000602082860101526020601f19601f83011685010191505092915050565b60a08152600061060e60a08301886105b5565b828103602084015261062081886105b5565b9050828103604084015261063481876105b5565b9050828103606084015261064881866105b5565b91505082151560808301529695505050505050565b634e487b7160e01b600052604160045260246000fd5b600082601f83011261068457600080fd5b813567ffffffffffffffff8082111561069f5761069f61065d565b604051601f8301601f19908116603f011681019082821181831017156106c7576106c761065d565b816040528381528660208588010111156106e057600080fd5b836020870160208301376000602085830101528094505050505092915050565b600080600080600060a0868803121561071857600080fd5b85359450602086013567ffffffffffffffff8082111561073757600080fd5b61074389838a01610673565b9550604088013591508082111561075957600080fd5b61076589838a01610673565b9450606088013591508082111561077b57600080fd5b61078789838a01610673565b9350608088013591508082111561079d57600080fd5b506107aa88828901610673565b9150509295509295909350565b600181811c908216806107cb57607f821691505b6020821081036107eb57634e487b7160e01b600052602260045260246000fd5b50919050565b601f82111561083b57600081815260208120601f850160051c810160208610156108185750805b601f850160051c820191505b8181101561083757828155600101610824565b5050505b505050565b815167ffffffffffffffff81111561085a5761085a61065d565b61086e8161086884546107b7565b846107f1565b602080601f8311600181146108a3576000841561088b5750858301515b600019600386901b1c1916600185901b178555610837565b600085815260208120601f198616915b828110156108d2578886015182559484019460019091019084016108b3565b50858210156108f05787850151600019600388901b60f8161c191681555b5050505050600190811b01905550565b60408152600061091360408301856105b5565b828103602084015261092581856105b5565b9594505050505056fea2646970667358221220cf0282a07d1513f429e42b27c08df29ff5aeda4e37f5f9422c4878ca4e3e6aef64736f6c63430008140033",
  "immutableReferences": {},
  "source": "// SPDX-License-Identifier: MIT\r\npragma solidity 0.8.20;\r\n\r\ncontract Cert {\r\n    \r\n    address admin;\r\n\r\n    // Modified event without indexed string\r\n    event Issued(string course, uint256 indexed id, string grade);\r\n    \r\n    constructor() {\r\n        admin = msg.sender;    \r\n    }\r\n    \r\n    modifier onlyAdmin {\r\n        require(msg.sender == admin, \"Access Denied\");\r\n        _;\r\n    }\r\n    \r\n    struct Certificate {\r\n        string name;\r\n        string course;\r\n        string grade;\r\n        string date;\r\n        bool exists;  // Add this to track if certificate exists\r\n    }\r\n    \r\n    mapping (uint256 => Certificate) public Certificates;\r\n    \r\n    function issue(\r\n        uint256 _id,\r\n        string memory _name,\r\n        string memory _course,\r\n        string memory _grade,\r\n        string memory _date\r\n    ) public onlyAdmin {\r\n        require(_id > 0, \"Invalid ID\");\r\n        require(bytes(_name).length > 0, \"Name cannot be empty\");\r\n        require(bytes(_course).length > 0, \"Course cannot be empty\");\r\n        require(bytes(_grade).length > 0, \"Grade cannot be empty\");\r\n        require(bytes(_date).length > 0, \"Date cannot be empty\");\r\n        \r\n        Certificates[_id] = Certificate(_name, _course, _grade, _date, true);\r\n        emit Issued(_course, _id, _grade);\r\n    }\r\n    \r\n    // Add a function to check if certificate exists\r\n    function certificateExists(uint256 _id) public view returns (bool) {\r\n        return Certificates[_id].exists;\r\n    }\r\n}",
  "sourcePath": "G:\\Tugas\\blockChain\\Certificate-dApp\\contracts\\Cert.sol",
  "compiler": {
    "name": "solc",
    "version": "0.8.20+commit.a1b79de6.Emscripten.clang"
  },
  "schemaVersion": "3.4.16",
  "updatedAt": "2025-01-13T06:38:20.448Z",
  "networkType": "ethereum",
  "devdoc": {
    "kind": "dev",
    "methods": {},
    "version": 1
  },
  "userdoc": {
    "kind": "user",
    "methods": {},
    "version": 1
  }
}